:020000040800F2
:1000000000000824791700082D1200083312000898
:10001000391200083F1200084512000800000000D5
:100020000000000000000000000000004B1200086B
:10003000591200080000000067120008751200083D
:10004000C9170008C9170008C9170008C917000810
:10005000C9170008C9170008C9170008C917000800
:10006000C9170008C9170008C9170008C9170008F0
:10007000C9170008C9170008C9170008C9170008E0
:10008000C9170008C9170008C9170008C9170008D0
:10009000C9170008C9170008C9170008C9170008C0
:1000A000C9170008C9170008C9170008C9170008B0
:1000B00085120008C9170008C9170008C9170008E9
:1000C000C9170008C9170008C9170008C917000890
:1000D000C9170008C9170008C9170008C917000880
:1000E000C9170008C917000800000000C917000858
:1000F000C9170008C9170008C9170008C917000860
:10010000C9170008C9170008C9170008C91700084F
:10011000C9170008C917000899120008C917000874
:10012000C9170008C9170008C9170008C91700082F
:10013000C9170008C9170008C9170008C91700081F
:1001400000000000000000000000000000000000AF
:10015000C9170008C9170008C9170008C9170008FF
:10016000C9170008C9170008C9170008C9170008EF
:10017000C9170008C9170008C917000800000000C7
:10018000C9170008C9170008C9170008C9170008CF
:10019000C9170008C9170008C9170008C9170008BF
:1001A000C9170008C9170008C9170008C9170008AF
:1001B000C9170008C9170008C9170008C91700089F
:1001C000C9170008C9170008C9170008C91700088F
:1001D000C9170008C1120008C9170008C91700088C
:1001E000C9170008C9170008C9170008C91700086F
:1001F000C9170008C9170008C9170008C91700085F
:10020000C9170008C9170008C9170008C91700084E
:10021000C9170008C9170008C9170008C91700083E
:10022000C9170008C9170008C91700080000000016
:10023000C9170008C917000800000000C917000806
:10024000C9170008C9170008C9170008C91700080E
:10025000C9170008C9170008C9170008C9170008FE
:10026000C9170008C9170008C9170008C9170008EE
:10027000C9170008C9170008C917000800000000C6
:10028000C9170008C9170008C917000800000000B6
:0802900000000000C91700087E
:1002A00010B5054C237833B9044B13B10448AFF3B0
:1002B00000800123237010BD5801002400000000BD
:1002C0004C0D010808B5034B1BB103490348AFF3BC
:1002D000008008BD000000005C0100244C0D0108F6
:1002E00001F0FF01102A2BDB10F0070F08D010F8E7
:1002F000013B013A8B422DD010F0070F42B3F6D1EB
:10030000F0B441EA012141EA014122F007047FF003
:1003100000070023F0E80256083C85EA010586EA5A
:10032000010685FA47F5A3FA87F586FA47F6A5FA96
:1003300087F68EB9EED1F0BC01F0FF0102F00702A2
:1003400032B110F8013B013A83EA010313B1F8D14D
:100350000020704701387047002D06BF354603382E
:10036000073815F0010F07D1013015F4807F02BF67
:10037000013015F4C03F0130F0BC0138704700BFB8
:1003800080B58AB000AF07F11C0300221A605A60E2
:100390009A603B4600221A605A609A60DA601A61DD
:1003A0005A619A612F4B304A1A602E4B00225A60D4
:1003B0002C4B00229A602B4B0022DA60294B04223E
:1003C0001A61284B00221A75264B00225A75254BBC
:1003D00001229A61234B00221A77224B00225A6293
:1003E000204B00229A621F4B0022DA621D4B002232
:1003F0001A631C4B00225A631A4B002283F83820E0
:10040000184804F00DFA0346002B01D000F09EFDC1
:100410000023FB6107F11C031946124803F014FF87
:100420000346002B01D000F091FD104B3B600623EA
:100430007B600023BB6040F2FF73FB6004233B61E1
:1004400000237B6100237B763B461946054804F078
:100450006BFC0346002B01D000F078FD00BF28376D
:10046000BD4680BD740100240020024004006008E5
:1004700080B5BCB000AF786007F1DC0300221A60E1
:100480005A609A60DA601A6107F11803C0220021ED
:1004900018460FF051FF7B681B683B4A93426FD1AF
:1004A0004FF400224FF00003C7E9062319233B62F3
:1004B0004FF4FC737B620723BB620223FB620223BF
:1004C0003B6300237B630023BB630023FB630023A8
:1004D000C7F8BC3007F11803184607F0C5FF0346FC
:1004E000002B01D000F032FD284BD3F8D830274A3A
:1004F00043F02003C2F8D830244BD3F8D83003F0AF
:1005000020037B617B69214BD3F8E0301F4A43F025
:100510000103C2F8E0301D4BD3F8E03003F00103D3
:100520003B613B69194BD3F8E030184A43F0200394
:10053000C2F8E030154BD3F8E03003F02003FB6045
:10054000FB684023C7F8DC300323C7F8E030002302
:10055000C7F8E43007F1DC0319460D4806F076F9D8
:100560004FF40063C7F8DC300323C7F8E030002302
:10057000C7F8E43007F1DC031946064806F066F9CF
:1005800000BFF037BD4680BD002002400044025845
:10059000000002580014025880B58AB000AF3B1D1D
:1005A0002422002118460FF0C7FE124B124A1A608F
:1005B000104805F0F9FA0346002B01D000F0C6FC04
:1005C00000237B600023BB600023FB6001233B61B1
:1005D00000237B613B1D00221946064805F0E2FB23
:1005E0000346002B01D000F0B1FC00BF2837BD4608
:1005F00080BD00BFD80100240074004080B58AB0DF
:1006000000AF786007F1140300221A605A609A6004
:10061000DA601A617B681B681C4A934231D11C4B1B
:10062000D3F8E8301A4A43F00053C2F8E830184BC8
:10063000D3F8E83003F000533B613B69144BD3F827
:10064000E030134A43F00103C2F8E030104BD3F816
:10065000E03003F00103FB60FB6810237B610323A0
:10066000BB610023FB6107F114031946094806F03A
:10067000EDF800220F21362005F0E8F9362005F0CC
:10068000FFF900BF2837BD4680BD00BF00740040A1
:10069000004402580000025880B58CB000AF07F14A
:1006A0001C0300221A605A609A60DA601A615C4B7F
:1006B000D3F8E0305A4A43F00403C2F8E030584B14
:1006C000D3F8E03003F00403BB61BB69544BD3F8AB
:1006D000E030534A43F08003C2F8E030504BD3F887
:1006E000E03003F080037B617B694D4BD3F8E03051
:1006F0004B4A43F00103C2F8E030494BD3F8E030F5
:1007000003F001033B613B69454BD3F8E030444AB9
:1007100043F00203C2F8E030414BD3F8E03003F07D
:100720000203FB60FB683E4BD3F8E0303C4A43F0E9
:100730002003C2F8E0303A4BD3F8E03003F0200356
:10074000BB60BB68364BD3F8E030354A43F4807366
:10075000C2F8E030324BD3F8E03003F480737B60B2
:100760007B682F4BD3F8E0302D4A43F04003C2F8AA
:10077000E0302B4BD3F8E03003F040033B603B68A4
:1007800000222021274806F011FA002202212648E3
:1007900006F00CFA01220121244806F007FA002293
:1007A0004021224806F002FA2023FB6101233B622C
:1007B00000237B620123BB6207F11C031946194821
:1007C00006F044F80223FB6101233B6200237B62B5
:1007D0000123BB6207F11C031946134806F036F8E3
:1007E0000123FB6101233B6200237B620023BB6288
:1007F00007F11C0319460D4806F028F84023FB6159
:1008000001233B6200237B620123BB6207F11C03CF
:100810001946064806F01AF800BF3037BD4680BDBD
:1008200000440258000802580004025800200258F0
:1008300080B500AF1B4B1C4A1A601A4B1B4A5A600A
:10084000184B00229A60174B0122DA60154B0022E8
:100850001A61144B00225A61124B00229A61114B0B
:100860000022DA610F4B00221A620E4806F068FA85
:100870000346002B01D000F069FB0021094806F077
:10088000C8F90346002B01D000F060FB00210548A9
:1008900006F00AFA0346002B01D000F057FB00BF18
:1008A00080BD00BFEC01002400540040B1757030E1
:1008B00080B5BAB000AF786007F1D40300221A60A7
:1008C0005A609A60DA601A6107F11003C0220021B1
:1008D00018460FF031FD7B681B68264A934245D1CC
:1008E0004FF008024FF00003C7E904230023C7F8C4
:1008F000943007F11003184607F0B6FD0346002BAD
:1009000001D000F023FB1C4BD3F8E0301A4A43F02F
:100910000203C2F8E030184BD3F8E03003F00203D2
:10092000FB60FB68C023C7F8D4301223C7F8D83067
:100930000023C7F8DC300023C7F8E0300423C7F8F1
:10094000E43007F1D40319460C4805F07FFF0A4B49
:10095000D3F8E830084A43F40013C2F8E830064BF5
:10096000D3F8E83003F40013BB60BB6800BFE8377E
:10097000BD4680BD005400400044025800040258A7
:1009800080B5A4B000AF00F0CFF9834B5B6903F4EE
:100990000033002B1BD1BFF34F8F00BFBFF36F8F0E
:1009A00000BF7D4B0022C3F85022BFF34F8F00BF22
:1009B000BFF36F8F00BF784B5B69774A43F4003316
:1009C0005361BFF34F8F00BFBFF36F8F00E000BFD5
:1009D000714B5B6903F48033002B43D16E4B0022D3
:1009E000C3F88420BFF34F8F00BF6B4BD3F8803028
:1009F000C7F88C30D7F88C305B0BC3F30E03C7F805
:100A00008830D7F88C30DB08C3F30903C7F884308B
:100A1000D7F888305A0143F6E0731340D7F88420A2
:100A200092075D491343C1F86032D7F884305A1EEB
:100A3000C7F88420002BEBD1D7F888305A1EC7F8AE
:100A40008820002BDDD1BFF34F8F00BF524B5B6975
:100A5000514A43F480335361BFF34F8F00BFBFF35C
:100A60006F8F00E000BF0DF0F1F900F0AFF8FFF775
:100A700013FEFFF7DDFE00F0EBFC00F037FDFFF7A3
:100A80007FFC0EF0C5FDFFF787FD00F065FA5C20E6
:100A90000FF07EFB03461A46404B1A6020200FF0F1
:100AA00077FB03461A463E4B1A605C200FF070FB42
:100AB00003461A463B4B1A6020200FF069FB0346A1
:100AC0001A46394B1A6000237B6007F108037C2229
:100AD000002118460FF030FC304B1B68304A11687B
:100AE00044F620629FED310A184602F0FFFF2D4BBD
:100AF0001B682D4A116844F620629FED2C0A1846A7
:100B000002F0F4FF4FF4006300220021284805F0B2
:100B100019F90021264805F069F8C8200DF0F2F90E
:100B200040F2FF720021234803F02AFB40F2FF72DB
:100B30004FF001111F4803F023FB01221E491D48FD
:100B400004F010F84FF47A700DF0DCF900211B4826
:100B50000CF0E6F8002119480BF0A0FD02F03CFF74
:100B600017480CF003F83B1D164918460FF0C4FB5C
:100B70003B1D802118460EF00BFE3B1D1A4600213E
:100B8000002002F0FBFE01210F4806F028F8C820E3
:100B90000DF0B8F9E7E700BF00ED00E0000000202D
:100BA00004000020080000200C0000200000484243
:100BB000D8010024740100240000003864030024DC
:100BC00018030024680D01080020025880B59EB06B
:100BD00000AF07F12C034C22002118460FF0ACFBAC
:100BE00007F10C032022002118460FF0A5FB02207C
:100BF00007F0F0FB0023BB60484BDB6A474A23F059
:100C00000103D362454BDB6A03F00103BB60444B35
:100C10009B69434A43F440439361414B9B6903F40E
:100C20004043BB60BB6800BF3D4B9B6903F400536E
:100C3000B3F5005FF8D13B4BD3F8F430394A43F0B9
:100C40000203C2F8F430374BD3F8F43003F0020358
:100C50007B607B6800233B60314B9B69304A43F4E7
:100C6000404393612E4B9B6903F440433B602B4B05
:100C7000DB6A2A4A43F00103D362284BDB6A03F0A4
:100C800001033B603B6800BF254B9B6903F40053A5
:100C9000B3F5005FF8D10123FB624FF480333B636F
:100CA00002233B6502237B650523BB65C023FB65EF
:100CB00002233B6614237B660223BB660823FB6684
:100CC00000233B6700237B6707F12C0318460AF0DB
:100CD000C9F80346002B01D000F038F93F23FB6030
:100CE00003233B6100237B610823BB614023FB613D
:100CF00040233B624FF480637B624023BB6207F179
:100D00000C03042118460AF007FD0346002B01D00E
:100D100000F01CF900BF7837BD4680BD00040058C4
:100D2000004802580044025880B584B000AF3B46EA
:100D300000221A605A609A60DA6004F0AFFE012364
:100D40003B7000237B704FF010537B6012233B728B
:100D500000237B720123BB720323FB7200233B73CE
:100D600000237B730123BB730123FB733B461846AF
:100D700004F0CCFE01237B704FF060537B600F23A7
:100D80003B720023BB720023FB733B46184604F002
:100D9000BDFE02237B704FF000537B6010233B723B
:100DA0003B46184604F0B2FE042004F08FFE00BF5C
:100DB0001037BD4680BD000080B52DED028B86B09A
:100DC00000AF78607B681B68534A934201D10DF0F5
:100DD00079F87B681B68B3F1804F40F097804F4BE8
:100DE0007B6104233B613B69002B1DDD7B6903F0C4
:100DF0001F023B691344FB607B69BB60BFF34F8FED
:100E000000BF474ABB68C2F85C32BB682033BB6096
:100E1000FB68203BFB60FB68002BF2DCBFF34F8FCD
:100E200000BFBFF36F8F00BF00BF3C4B1B8807EEB6
:100E3000903AF8EEE77A9FED3B7A27EE877ADFED7E
:100E40003A6AC7EE267A394B1B689FED397A77EEFE
:100E5000C77AC3ED007A314B5B8807EE903AF8EE23
:100E6000E77A9FED307A27EE877ADFED2F6AC7EEBB
:100E7000267A304B1B689FED2E7A77EEC77AC3ED4A
:100E8000007A2A4B1B682C4A12681146184602F059
:100E900013FF284B1B68294A1168244A1268184618
:100EA00002F0A2FF264B1B68DB6A07EE903AF8EED1
:100EB000677AF0EE006A87EEA67A224BD3ED007ACD
:100EC00027EE278A1B4B1B68D3ED0D7A9FED1E7A08
:100ED00077EE877AB0EE670A0FF0CAF8F0EE407A44
:100EE00028EE277A164B1B68DB6A07EE903AF8EE7D
:100EF000676AB0EE006AC6EE867A77EE277A104B04
:100F00001B68FCEEE77A17EE902A5A6300BF183789
:100F1000BD46BDEC028B80BD0010004000000038D3
:100F200000ED00E033335340000080470000002014
:100F30003333B33F08000020040000200C000020E1
:100F40006403002400000024DB0FC93F80B400AF1D
:100F500072B600BFFEE7000080B500AF274B284AFD
:100F60001A60264B4FF480025A60244B00229A608C
:100F7000224B0722DA60214B00221A611F4B00220C
:100F80005A611E4B4FF080629A611C4B0022DA615D
:100F90001A4B00221A62194B00225A62174B002288
:100FA0009A62164B0022DA62144B4FF080425A6369
:100FB000124B00229A63114B0022DA630F4B00227E
:100FC0001A640E4B00225A640C4B00229A640B4B9D
:100FD0000022DA64094B00221A65084B00225A6588
:100FE000064B00229A6505480AF04EFF0346002B87
:100FF00001D0FFF7ABFF00BF80BD00BF400200245F
:101000000030014080B5BCB000AF786007F1DC0370
:1010100000221A605A609A60DA601A6107F11803B8
:10102000C022002118460FF087F97B681B68384AF8
:10103000934269D14FF480524FF00003C7E9062371
:101040000023BB6707F11803184607F00DFA0346A3
:10105000002B01D0FFF77AFF2E4BD3F8F0302D4A4A
:1010600043F48053C2F8F0302A4BD3F8F03003F445
:1010700080537B617B69274BD3F8E030254A43F0EE
:101080000103C2F8E030234BD3F8E03003F0010352
:101090003B613B691F4BD3F8E0301E4A43F04003ED
:1010A000C2F8E0301B4BD3F8E03003F04003FB60A4
:1010B000FB68A023C7F8DC300223C7F8E030002328
:1010C000C7F8E4300123C7F8E8300523C7F8EC304F
:1010D00007F1DC031946104805F0B8FB4FF4007324
:1010E000C7F8DC300223C7F8E0300023C7F8E4304B
:1010F0000023C7F8E8300523C7F8EC3007F1DC031C
:101100001946064805F0A2FB00BFF037BD4680BD7A
:1011100000300140004402580000025800180258F4
:1011200080B483B000AF0A4BD3F8F430084A43F0E0
:101130000203C2F8F430064BD3F8F43003F0020394
:101140007B607B6800BF0C37BD465DF8047B704751
:101150000044025880B590B000AF78607B680F2BD8
:1011600027D800227968362004F070FC362004F07D
:1011700087FC294A7B681360284BD3F8E830274A5C
:1011800043F01003C2F8E830244BD3F8E83003F002
:101190001003FB60FB6807F1100207F1140311460E
:1011A00018460AF02FFEBB6ABB63BB6B002B06D14F
:1011B00001E001232BE00AF00FFEF86304E00AF0DF
:1011C0000BFE03465B00FB63FB6B154AA2FB03238C
:1011D0009B0C013B7B63134B134A1A60114B40F28B
:1011E000E732DA600F4A7B6B53600E4B00221A61C4
:1011F0000C4B00229A600B480BF061FC0346002B5D
:1012000004D108480BF0B2FC034600E00123184665
:101210004037BD4680BD00BF9800002400440258FE
:1012200083DE1B43C80200240010004080B400AFDE
:10123000FEE780B400AFFEE780B400AFFEE780B405
:1012400000AFFEE780B400AFFEE780B400AF00BFA0
:10125000BD465DF8047B704780B400AF00BFBD465B
:101260005DF8047B704780B400AF00BFBD465DF8F9
:10127000047B704780B400AF00BFBD465DF8047BBF
:101280007047000080B500AF02480BF057FE00BF6A
:1012900080BD00BF1803002480B500AF064B1B794A
:1012A000DBB2002B02D0044804F0F2FC03480BF040
:1012B00045FE00BF80BD00BFD8010024C802002445
:1012C00080B500AF024805F0ACFF00BF80BD00BF95
:1012D0009418002480B586B000AF7860144A154B8E
:1012E000D31A7B617B693B61134B1B68002B02D1D6
:1012F000114B124A1A60104B1A687B6813443A6902
:101300009A4207D20FF030F803460C221A604FF0D1
:10131000FF3309E0084B1B68FB60074B1A687B68CA
:101320001344054A1360FB6818461837BD4680BD54
:1013300000000824000400001403002408210024F5
:1013400080B400AF374BD3F88830364A43F470038B
:10135000C2F88830344B1B6803F00F03062B07D804
:10136000314B1B6823F00F032F4A43F00703136030
:101370002E4B1B682D4A43F0010313602B4B0022B8
:101380001A612A4B1A682949294B13400B60264BD6
:101390001B6803F00803002B07D0234B1B6823F0C6
:1013A0000F03214A43F007031360204B00229A6188
:1013B0001E4B0022DA611D4B00221A621B4B1D4A94
:1013C0009A621A4B1C4ADA62184B1C4A1A63174B72
:1013D00000225A63154B194A9A63144B0022DA63B0
:1013E000124B164A1A64114B00225A640F4B1B68A9
:1013F0000E4A23F4802313600C4B00221A66104B14
:101400001A68104B1340B3F1005F02D20E4B012259
:101410001A600E4B43F2D2021A6000BFBD465DF85F
:10142000047B704700ED00E00020005200440258A9
:101430007FEDF6EA000202020000FF0180020101D6
:101440000010005C0000FFFF0881005100400052C6
:1014500080B588B000AF07F1100300221A605A600F
:101460009A60DA603B1D00221A605A609A601E4B37
:101470004FF080421A601C4B00225A601A4B002227
:101480009A60194B42F6DF62DA60174B00221A614C
:10149000154B00229A6114480BF011FB0346002BF8
:1014A00001D0FFF753FD4FF480533B6107F1100368
:1014B00019460D480BF076FF0346002B01D0FFF7CD
:1014C00045FD00237B600023FB603B1D1946064859
:1014D0000BF0A6F90346002B01D0FFF737FD00BF44
:1014E0002037BD4680BD00BF1803002480B59AB0E8
:1014F00000AF07F1580300221A605A609A60DA6060
:1015000007F14C0300221A605A609A6007F1300319
:1015100000221A605A609A60DA601A615A619A6110
:101520003B1D2C22002118460EF006FF434B444A77
:101530001A60424B00225A60404B00229A603F4B97
:1015400042F6DF62DA603D4B00221A613B4B00221B
:101550005A613A4B00229A6138480BF0B0FA0346C0
:10156000002B01D0FFF7F2FC4FF48053BB6507F16D
:101570005803194631480BF015FF0346002B01D0E4
:10158000FFF7E4FC2D480BF069FB0346002B01D06C
:10159000FFF7DCFC0023FB6400233B6500237B6535
:1015A00007F14C03194625480BF03AF90346002B86
:1015B00001D0FFF7CBFC60233B6300237B63002358
:1015C000BB630023FB6300233B6400237B64002395
:1015D000BB6407F130030022194618480BF0CEFD1A
:1015E0000346002B01D0FFF7B1FC00237B600023F2
:1015F000BB600023FB6000233B6100237B614FF451
:101600000053BB610023FB6100233B624FF000737A
:101610007B620023BB620023FB623B1D1946074827
:101620000BF08CF90346002B01D0FFF78FFC034829
:1016300000F046F800BF6837BD4680BD6403002453
:101640000004014080B584B000AF78607B681B68FF
:10165000B3F1804F17D1184BD3F8E830164A43F056
:101660000103C2F8E830144BD3F8E83003F001036B
:10167000FB60FB68002200211C2004F0E7F91C201D
:1016800004F0FEF913E07B681B680C4A93420ED10C
:10169000094BD3F8F030084A43F00203C2F8F030A7
:1016A000054BD3F8F03003F00203BB60BB6800BF0A
:1016B0001037BD4680BD00BF004402580004014001
:1016C00080B58AB000AF786007F1140300221A6079
:1016D0005A609A60DA601A617B681B68224A9342FA
:1016E0003ED1224BD3F8E030204A43F00403C2F845
:1016F000E0301E4BD3F8E03003F004033B613B695C
:101700001A4BD3F8E030194A43F08003C2F8E030B6
:10171000164BD3F8E03003F08003FB60FB684023F6
:101720007B610223BB610023FB6103233B62032334
:101730007B6207F1140319460D4805F087F84FF452
:1017400000537B610223BB610023FB6100233B62EA
:1017500003237B6207F114031946064805F076F867
:1017600000BF2837BD4680BD000401400044025838
:1017700000080258001C0258DFF834D0FFF7E0FDE3
:101780000C480D490D4A002302E0D458C4500433DC
:10179000C4188C42F9D30A4A0A4C002301E01360B2
:1017A0000432A242FBD30EF0E5FDFFF7E9F87047E3
:1017B000000008240000002458010024081C01082F
:1017C0005801002408210024FEE7000080B584B001
:1017D00000AF78600B46FB704FF407700EF004FC0E
:1017E000F860FB68002B09D17B68D3F8D4227B68B2
:1017F000B032002143F822100223D4E04FF40772E4
:101800000021F8680EF098FD7B68D3F8D4227B683D
:10181000B032F96843F822107B68D3F8D4227B6891
:10182000B03253F822207B68C3F8BC227B681B7C53
:10183000002B38D15E4B19784FF400730222786880
:101840000EF0AFFA5A4B1B7803F00F02796813467B
:101850009B0013449B000B44243301221A80554BF8
:1018600019784FF40073022278680EF09AFA514BFF
:101870001B7803F00F02796813469B0013449B000A
:101880000B4403F5B27301221A804B4B1B7803F013
:101890000F02796813469B0013449B000B442633C8
:1018A00010221A8035E0424B1978402302227868D2
:1018B0000EF077FA3E4B1B7803F00F02796813465F
:1018C0009B0013449B000B44243301221A80394BA4
:1018D00019784023022278680EF063FA354B1B78A2
:1018E00003F00F02796813469B0013449B000B44DE
:1018F00003F5B27301221A802F4B1B7803F00F02FD
:10190000796813469B0013449B000B442633102236
:101910001A80294B19780823032278680EF041FABF
:10192000254B1B7803F00F02796813469B00134484
:101930009B000B44243301221A80FB680022C3F869
:1019400004227B68D3F8D4327A68B0339B00134406
:101950005B681B689847FB680022C3F81422FB6889
:101960000022C3F81822FB68D3F80432002B01D1FF
:10197000022318E07B681B7C002B0AD10D4B1978E1
:10198000FB68D3F804224FF4007378680EF0F8FA7D
:1019900008E0084B1978FB68D3F8042240237868E4
:1019A0000EF0EEFA002318461037BD4680BD00BF8A
:1019B00093000024940000249500002480B582B098
:1019C00000AF78600B46FB703A4B1B78194678687D
:1019D0000EF00DFA374B1B7803F00F0279681346AF
:1019E0009B0013449B000B44243300221A80324B8B
:1019F0001B78194678680EF0FAF92F4B1B7803F024
:101A00000F02796813469B0013449B000B4403F5B7
:101A1000B27300221A80294B1B78194678680EF0A1
:101A2000E6F9264B1B7803F00F02796813469B00FA
:101A300013449B000B44243300221A801F4B1B7855
:101A400003F00F02796813469B0013449B000B447C
:101A5000263300221A807B68D3F8D4227B68B03208
:101A600053F82230002B1FD07B68D3F8D4327A6829
:101A7000B0339B0013445B685B6898477B68D3F87E
:101A8000D4227B68B03253F8223018460EF0BAFAEE
:101A90007B68D3F8D4227B68B032002143F822104F
:101AA0007B680022C3F8BC22002318460837BD46D5
:101AB00080BD00BF93000024940000249500002402
:101AC00080B586B000AF786039607B68D3F8D422E7
:101AD0007B68B03253F822303B6100237B730023D4
:101AE0007B810023FB753B69002B01D10323BFE001
:101AF0003B681B7803F06003002B50D0202B40F094
:101B0000AF803B68DB88002B3AD03B681B785BB228
:101B1000002B1BDA7B68D3F8D4327A68B0339B0091
:101B200013445B689B683A68507839693A68D28890
:101B300098473B68DB88072B28BF0723FB813B695D
:101B4000FA891946786801F0B3FD90E03B685A784D
:101B50003B6983F800223B68DB883F2B03D83B6856
:101B6000DB88DAB200E040223B6983F80122396960
:101B70003B6993F801321A46786801F0C5FD76E0BA
:101B80007B68D3F8D4327A68B0339B0013445B6827
:101B90009B683A68507800223968984767E03B684C
:101BA0005B780B2B51D801A252F823F0DD1B000803
:101BB000591C00084B1C00084B1C00084B1C00085B
:101BC0004B1C00084B1C00084B1C00084B1C000859
:101BD0004B1C0008071C0008311C00087B6893F8A8
:101BE0009C32DBB2032B07D107F10A03022219460C
:101BF000786801F05DFD32E03968786801F0E7FC53
:101C00000323FB752BE07B6893F89C32DBB2032B3C
:101C100007D107F10D0301221946786801F048FD4C
:101C20001DE03968786801F0D2FC0323FB7516E0EB
:101C30007B6893F89C32DBB2032B0FD0396878684D
:101C400001F0C5FC0323FB7508E03968786801F0F2
:101C5000BEFC0323FB7502E000BF08E000BF06E006
:101C60003968786801F0B3FC0323FB7500BFFB7D86
:101C700018461837BD4680BD80B584B000AF786087
:101C80000B46FB707B68D3F8C832FB607B68D3F8E7
:101C9000D4227B68B03253F82230002B01D10323C9
:101CA00065E07B68D3F8D4227B68B03253F82230E9
:101CB000BB60FB7803F00F02796813469B00134466
:101CC0009B000B4418331B68002B2FD0FB7803F0CC
:101CD0000F02796813469B0013449B000B44183392
:101CE0001A68FB7803F00F01F8680B46DB000B4421
:101CF0009B00034444331B68B2FBF3F101FB03F385
:101D0000D31A002B12D1FB7803F00F027968134627
:101D10009B0013449B000B44183300221A60F9788F
:101D20000023002278680EF00AF91FE0BB68002249
:101D3000C3F814227B68D3F8D4327A68B0339B009E
:101D400013445B681B69002B10D07B68D3F8D43236
:101D50007A68B0339B0013445B681B69BA68D2F899
:101D60000802BA6802F50471FA7898470023184609
:101D70001037BD4680BD80B584B000AF78600B469B
:101D8000FB707B68D3F8D4227B68B03253F82230E2
:101D9000FB607B68D3F8D4227B68B03253F82230E2
:101DA000002B01D103231AE0FB78194678680EF066
:101DB00008F90246FB68C3F80C227B68D3F8D432DA
:101DC0007A68B0339B0013445B68DB68FA68D2F82A
:101DD0000402FA6802F50372114698470023184678
:101DE0001037BD4680BD80B584B000AF78607B6899
:101DF000D3F8D4227B68B03253F82230FB60FB6802
:101E0000002B01D1032325E07B68D3F8D4327A6814
:101E1000B0339B0013445B68002B1AD0FB6893F827
:101E20000032FF2B15D07B68D3F8D4327A68B033F8
:101E30009B0013445B689B68FA6892F80002F9689B
:101E4000FA6892F8012292B29847FB68FF2283F861
:101E50000022002318461037BD4680BD80B586B0ED
:101E600000AF78608221184800F04FFD78610121B1
:101E7000154800F04AFD38618121134800F045FD06
:101E8000F8607B69002B02D07B6910229A713B6954
:101E9000002B06D03B69002242F040021A7100225A
:101EA0005A71FB68002B06D0FB68002242F040020A
:101EB0001A7100225A717B6843221A80024B18461D
:101EC0001837BD4680BD00BF5000002480B586B0E5
:101ED00000AF78608221184800F017FD7861012179
:101EE000154800F012FD38618121134800F00DFD06
:101EF000F8607B69002B02D07B6910229A713B69E4
:101F0000002B06D03B6900221A71002242F0020227
:101F10005A71FB68002B06D0FB6800221A71002260
:101F200042F002025A717B6843221A80024B184623
:101F30001837BD4680BD00BF5000002480B586B074
:101F400000AF78608221184800F0DFFC7861012141
:101F5000154800F0DAFC38618121134800F0D5FC07
:101F6000F8607B69002B02D07B6910229A713B6973
:101F7000002B06D03B69002242F040021A71002279
:101F80005A71FB68002B06D0FB68002242F0400229
:101F90001A7100225A717B6843221A80024B18463C
:101FA0001837BD4680BD00BF5000002480B483B008
:101FB00000AF78607B680A221A80034B18460C3702
:101FC000BD465DF8047B70470C00002480B483B0EC
:101FD00000AF786039603B68002B01D1032309E032
:101FE0007B68D3F8D4327A68B0339B0013443A68E4
:101FF0005A60002318460C37BD465DF8047B7047D5
:1020000080B487B000AFF860B9607A60FB68D3F83D
:10201000D422FB68B03253F822307B617B69002BFD
:1020200001D1032308E07B69BA68C3F808227B6901
:102030007A68C3F81022002318461C37BD465DF8A5
:10204000047B704780B485B000AF786039607B68EE
:10205000D3F8D4227B68B03253F82230FB60FB689F
:10206000002B01D1032304E0FB683A68C3F8042283
:10207000002318461437BD465DF8047B7047000006
:1020800080B584B000AF78607B68D3F8D4227B68D9
:10209000B03253F82230BB600123FB73BB68002BC6
:1020A00001D1032325E0BB68D3F81432002B1FD1E4
:1020B000BB680122C3F81422104B1B7803F00F02F7
:1020C000BB68D3F81012786813469B0013449B003A
:1020D000034418331960094B1978BB68D3F80822F8
:1020E000BB68D3F8103278680DF029FF0023FB732A
:1020F000FB7B18461037BD4680BD00BF930000240F
:1021000080B584B000AF78607B68D3F8D4227B6858
:10211000B03253F82230FB607B68D3F8D4227B685E
:10212000B03253F82230002B01D1032318E07B6832
:102130001B7C002B0AD10C4B1978FB68D3F80422C6
:102140004FF4007378680DF01BFF08E0064B197818
:10215000FB68D3F80422402378680DF011FF0023B8
:1021600018461037BD4680BD9400002480B586B067
:1021700000AFF860B9601346FB71FB68002B01D11A
:1021800003231FE0FB680022C3F8B822FB6800228B
:10219000C3F8C422FB680022C3F8D022BB68002B1E
:1021A00003D0FB68BA68C3F8B422FB68012283F845
:1021B0009C22FB68FA791A70F8680DF087FD0346D7
:1021C000FB75FB7D18461837BD4680BD80B584B0D1
:1021D00000AF786039600023FB813B68002B01D1A0
:1021E000032325E07B683A68C3F8B8227B68D3F8FC
:1021F000D4227B68AE3253F82230DB6A002B0FD03A
:102200007B68D3F8D4227B68AE3253F82230DB6A85
:1022100007F10E021046984702467B68C3F8D022A9
:102220007B68D3F8D8325A1C7B68C3F8D8220023C5
:1022300018461037BD4680BD80B582B000AF7860CB
:1022400078680DF093FD034618460837BD4680BDFB
:1022500080B483B000AF7860002318460C37BD46C9
:102260005DF8047B704780B584B000AF78600B46A2
:10227000FB700023FB737B68D3F8B832002B09D0C6
:102280007B68D3F8B8321B68FA78114678689847AB
:102290000346FB73FB7B18461037BD4680BD80B5F7
:1022A00084B000AF78600B46FB700023FB737B6843
:1022B000D3F8B8325B68FA781146786898470346D5
:1022C000002B01D00323FB73FB7B18461037BD4660
:1022D00080BD80B584B000AF786039607B6803F260
:1022E000AA233968184601F038F97B680122C3F83F
:1022F00094227B68B3F8B0321A467B68C3F8982200
:102300007B6893F8AA3203F01F03022B1AD0022B2A
:1023100022D8002B02D0012B0AD01DE07B6803F2EB
:10232000AA231946786800F065FB0346FB7320E09A
:102330007B6803F2AA231946786800F0CDFB0346B8
:10234000FB7316E07B6803F2AA231946786800F055
:102350002FFC0346FB730CE07B6893F8AA3223F052
:102360007F03DBB2194678680DF060FD0346FB730E
:1023700000BFFB7B18461037BD4680BD80B586B0D8
:1023800000AFF8600B467A60FB720023FB75FB7AA6
:10239000002B6ED1FB6803F5AA733B61FB68D3F891
:1023A0009432032B40F098803B699A683B69DB6864
:1023B0009A4213D93B699A683B69DB68D21A3B6938
:1023C0009A603B69DA683B699B68934228BF134671
:1023D0001A467968F86801F0B4F97DE0FB6893F873
:1023E000AA3203F01F03022B14D0022B1DD8002B9E
:1023F00002D0012B03D018E00023BB7518E0FB6866
:10240000B3F8AE32DBB21946F86800F064FA03465E
:10241000BB750DE0FB68B3F8AE32DBB21946F86865
:1024200000F066FA0346BB7502E00023BB7500BFEF
:10243000BB7D002B19D1FB6893F89C32DBB2032BD8
:1024400013D1BA7DFB68AE3253F822301B69002BE2
:102450000BD0BA7DFB68C3F8D422BA7DFB68AE32DC
:1024600053F822301B69F8689847F86801F07AF948
:1024700032E0FB7A03F07F03DBB21946F86800F024
:1024800037FA0346BB75BB7DFF2B25D0BB7D002BE8
:1024900022D1FB6893F89C32DBB2032B17D1BA7DB3
:1024A000FB68AE3253F822309B69002B0FD0BA7D07
:1024B000FB68C3F8D422BA7DFB68AE3253F82230F1
:1024C0009B69FA7A1146F86898470346FB75FB7DCD
:1024D000002B01D0FB7D00E0002318461837BD46D5
:1024E00080BD80B586B000AFF8600B467A60FB72A5
:1024F000FB7A002B6FD1FB6814333B61FB68D3F888
:102500009432022B5AD13B699A683B69DB689A4244
:1025100014D93B699A683B69DB68D21A3B699A60B7
:102520003B699B681A467968F86801F0DCF800237B
:1025300000220021F8680DF023FD3FE03B69DA68D6
:102540003B699B689A421CD13B695A683B69DB68CE
:102550009A4216D33B695A68FB68D3F898329A427C
:102560000FD200220021F86801F0BDF8FB680022BC
:10257000C3F89822002300220021F8680DF000FD26
:102580001CE0FB6893F89C32DBB2032B0FD1FB6895
:10259000D3F8B832DB68002B09D0FB680022C3F8FF
:1025A000D422FB68D3F8B832DB68F86898478021FA
:1025B000F8680DF03BFCF86801F0E7F8FB6893F869
:1025C000A032002B3AD0F868FFF742FEFB680022E9
:1025D00083F8A02232E0FB7A63F07F03DBB2194676
:1025E000F86800F085F90346FB75FB7DFF2B25D0CD
:1025F000FB7D002B22D1FB6893F89C32DBB2032BCE
:102600001CD1FA7DFB68AE3253F822305B69002B97
:1026100014D0FA7DFB68C3F8D422FA7DFB68AE3291
:1026200053F822305B69FA7A1146F86898470346F6
:10263000BB75BB7D002B01D0BB7D00E0002318469D
:102640001837BD4680BD80B584B000AF78600023E8
:10265000FB737B68012283F89C227B680022C3F80D
:1026600094227B6800225A607B680022C3F8A4226F
:102670007B68002283F8A0227B68D3F8B832002B55
:1026800014D07B68D3F8B8325B68002B0ED07B681F
:10269000D3F8B8325B687A685268D2B2114678686B
:1026A00098470346002B01D00323FB7340230022ED
:1026B000002178680DF075FB7B680122A3F8642186
:1026C0007B684022C3F86021402300228021786883
:1026D0000DF067FB7B6801229A847B6840221A62B6
:1026E000FB7B18461037BD4680BD80B483B000AF79
:1026F00078600B46FB707B68FA781A7400231846E2
:102700000C37BD465DF8047B704780B483B000AFE2
:1027100078607B6893F89C32DBB2042B06D07B6830
:1027200093F89C32DAB27B6883F89D227B6804229E
:1027300083F89C22002318460C37BD465DF8047BC5
:10274000704780B483B000AF78607B6893F89C32A8
:10275000DBB2042B06D17B6893F89D32DAB27B683A
:1027600083F89C22002318460C37BD465DF8047B95
:10277000704780B582B000AF78607B6893F89C3278
:10278000DBB2032B10D17B68D3F8B832002B0BD00F
:102790007B68D3F8B832DB69002B05D07B68D3F8AF
:1027A000B832DB6978689847002318460837BD4679
:1027B00080BD80B582B000AF78600B46FB707B684F
:1027C000D3F8D4227B68AE3253F82230002B01D1EB
:1027D00003231CE07B6893F89C32DBB2032B15D1FA
:1027E0007B68D3F8D4227B68AE3253F822301B6A60
:1027F000002B0BD07B68D3F8D4227B68AE3253F821
:1028000022301B6AFA7811467868984700231846E8
:102810000837BD4680BD80B582B000AF78600B46FA
:10282000FB707B68D3F8D4227B68AE3253F8223039
:10283000002B01D103231CE07B6893F89C32DBB2B0
:10284000032B15D17B68D3F8D4227B68AE3253F8C2
:1028500022305B6A002B0BD07B68D3F8D4227B68D4
:10286000AE3253F822305B6AFA781146786898479E
:10287000002318460837BD4680BD80B483B000AF42
:102880007860002318460C37BD465DF8047B70471E
:1028900080B584B000AF78600023FB737B680122B1
:1028A00083F89C227B68D3F8B832002B0ED07B686B
:1028B000D3F8B8325B687A685268D2B21146786849
:1028C00098470346002B01D00323FB73FB7B18467C
:1028D0001037BD4680BD80B483B000AF78600B4632
:1028E000FB70002318460C37BD465DF8047B70472B
:1028F00080B483B000AF78600B46FB7000231846AD
:102900000C37BD465DF8047B704780B586B000AFDC
:1029100078600B46FB707B687B617B68FB60002303
:102920003B61FB685B889AB2FB681B789BB29A425A
:1029300020D9FB681B789BB27B8113E007F10A0367
:102940001946786900F01BF878617B695B78052B84
:1029500008D17B693B613B699B78FA789A4208D041
:1029600000233B61FB685B889AB27B899A42E5D879
:1029700000E000BF3B6918461837BD4680BD80B4F3
:1029800085B000AF786039607B68FB603B681A886F
:10299000FB681B789BB213449AB23B681A80FB68B1
:1029A0001B781A467B681344FB60FB681846143793
:1029B000BD465DF8047B704780B487B000AF786097
:1029C0007B687B617B691B787B827B6901337B61E0
:1029D0007B691B783B823B8A1B021AB2B7F9123023
:1029E00013431BB2FB81FB8918461C37BD465DF8BB
:1029F000047B704780B584B000AF786039600023F5
:102A0000FB733B681B7803F06003402B05D0402B21
:102A100057D8002B0FD0202B53D17B68D3F8D4226A
:102A20007B68AE3253F822309B68396878689847E3
:102A30000346FB734AE03B685B78092B3BD801A255
:102A400052F823F0992A0008AD2A0008B72A000896
:102A5000A32A0008B72A0008772A00086D2A000870
:102A6000B72A00088F2A0008812A00083968786888
:102A700000F03CFA24E03968786800F0CBFB1FE0F6
:102A80003968786800F00AFC0346FB7318E039687F
:102A9000786800F0ADFC13E03968786800F0DEFC7F
:102AA0000EE03968786800F00DFD09E03968786853
:102AB00000F031FD04E03968786800F088FD00BF5F
:102AC00004E03968786800F082FD00BFFB7B18469F
:102AD0001037BD4680BD00BF80B584B000AF7860C0
:102AE00039600023FB733B681B7803F06003402BC5
:102AF00005D0402B52D8002B01D0202B4ED17B6823
:102B000093F89C32DBB2013B022B40D83B689B8898
:102B1000DBB2012B36D83B689B88DBB2194678685C
:102B2000FFF7D9FE0346BB73BB7BFF2B1DD0BB7BDE
:102B3000002B1AD1BA7B7B68AE3253F822309B68E7
:102B4000002B0FD0BA7B7B68C3F8D422BA7B7B689A
:102B5000AE3253F822309B6839687868984703464C
:102B6000FB7304E00323FB7301E00323FB733B6867
:102B7000DB88002B10D1FB7B002B0DD1786800F097
:102B8000F1FD09E03968786800F021FD04E039685A
:102B9000786800F01CFD00E000BF04E03968786848
:102BA00000F015FD00BFFB7B18461037BD4680BD09
:102BB00080B584B000AF786039600023FB733B6858
:102BC0009B88BB733B681B7803F06003402B07D0E6
:102BD000402B00F27F81002B2AD0202B40F07A81FD
:102BE000BB7B19467868FFF783FE03467B737B7BCC
:102BF000FF2B00F074817B7B002B40F070817A7B8F
:102C00007B68C3F8D4227A7B7B68AE3253F82230DB
:102C10009B68002B00F063817A7B7B68AE3253F8AF
:102C200022309B683968786898470346FB7356E101
:102C30003B685B78032B08D0032B00F34581002B06
:102C400000F09B80012B3CD03EE17B6893F89C32E6
:102C5000DBB2022B02D0032B16D02CE0BB7B002B67
:102C60000DD0BB7B802B0AD0BB7B194678680DF05A
:102C7000DDF8802178680DF0D9F800BF20E03968D0
:102C8000786800F0A4FC1BE03B685B88002B0ED149
:102C9000BB7B002B0BD0BB7B802B08D03B68DB8839
:102CA000002B04D1BB7B194678680DF0BFF878681B
:102CB00000F058FD04E03968786800F088FC00BF37
:102CC00007E17B6893F89C32DBB2022B02D0032B26
:102CD00016D04BE0BB7B002B0DD0BB7B802B0AD0EA
:102CE000BB7B194678680DF0A1F8802178680DF05B
:102CF0009DF800BF40E03968786800F068FC3BE070
:102D00003B685B88002B36D1BB7B03F07F03002B35
:102D100004D0BB7B194678680DF0A7F8786800F0FE
:102D200021FDBB7B19467868FFF7E2FD03467B7304
:102D30007B7BFF2B1FD07B7B002B1CD17A7B7B689E
:102D4000C3F8D4227A7B7B68AE3253F822309B687A
:102D5000002B10D07A7B7B68AE3253F822309B6810
:102D60003968786898470346FB7304E039687868E7
:102D700000F02DFC00E000BFABE07B6893F89C32D4
:102D8000DBB2022B02D0032B32D097E0BB7B002BAF
:102D900007D0BB7B802B04D03968786800F017FC23
:102DA00091E097F90E30002B0BDABB7B03F07F022A
:102DB00013469B0013449B0010337A68134404337A
:102DC0000BE0BB7B03F07F0213469B0013449B0088
:102DD00003F5A8737A6813440433BB60BB68002210
:102DE0001A60BB6802221946786800F061FC6AE04C
:102DF00097F90E30002B11DABB7B03F00F027968D4
:102E000013469B0013449B000B4424331B88002B68
:102E100017D13968786800F0DAFB54E0BB7B03F027
:102E20000F02796813469B0013449B000B4403F583
:102E3000B2731B88002B04D13968786800F0C7FB97
:102E400041E097F90E30002B0BDABB7B03F07F02D9
:102E500013469B0013449B0010337A6813440433D9
:102E60000BE0BB7B03F07F0213469B0013449B00E7
:102E700003F5A8737A6813440433BB60BB7B002B53
:102E800002D0BB7B802B03D1BB6800221A600EE00E
:102E9000BB7B194678680DF007F80346002B03D07A
:102EA000BB6801221A6002E0BB6800221A60BB689E
:102EB00002221946786800F0FBFB04E03968786864
:102EC00000F085FB00BF04E03968786800F07FFB04
:102ED00000BF05E03968786800F079FB00E000BFCA
:102EE000FB7B18461037BD4680BD000080B584B01E
:102EF00000AF7860396000233B810023FB60002332
:102F0000FB723B685B881B0A9BB2013B0E2B00F2F5
:102F1000528101A252F823F0892F0008A12F000846
:102F2000E12F0008B7310008B73100085731000819
:102F300083310008B7310008B7310008B731000805
:102F4000B7310008B7310008B7310008B7310008C1
:102F5000552F00087B68D3F8B432DB69002B0BD007
:102F60007B68D3F8B432DB697A68127C07F1080118
:102F700010469847F86026E13968786800F027FB2A
:102F8000FB7A0133FB721EE17B68D3F8B4321B6815
:102F90007A68127C07F1080110469847F86012E140
:102FA0007B681B7C002B0DD17B68D3F8B8329B6A01
:102FB00007F1080210469847F860FB6801330222C7
:102FC0001A7000E17B68D3F8B832DB6A07F10802B7
:102FD00010469847F860FB68013302221A70F2E04D
:102FE0003B685B88DBB2052B00F2AC8001A252F893
:102FF00023F000BF0D300008413000087530000894
:10300000A9300008DD300008113100087B68D3F8D2
:10301000B4325B68002B0BD07B68D3F8B4325B68AA
:103020007A68127C07F1080110469847F86091E031
:103030003968786800F0CBFAFB7A0133FB7289E0DB
:103040007B68D3F8B4329B68002B0BD07B68D3F835
:10305000B4329B687A68127C07F1080110469847E1
:10306000F86077E03968786800F0B1FAFB7A0133EC
:10307000FB726FE07B68D3F8B432DB68002B0BD0B7
:103080007B68D3F8B432DB687A68127C07F10801F8
:1030900010469847F8605DE03968786800F097FA64
:1030A000FB7A0133FB7255E07B68D3F8B4321B69BD
:1030B000002B0BD07B68D3F8B4321B697A68127C82
:1030C00007F1080110469847F86043E039687868CE
:1030D00000F07DFAFB7A0133FB723BE07B68D3F8AA
:1030E000B4325B69002B0BD07B68D3F8B4325B69D8
:1030F0007A68127C07F1080110469847F86029E0C9
:103100003968786800F063FAFB7A0133FB7221E0DA
:103110007B68D3F8B4329B69002B0BD07B68D3F863
:10312000B4329B697A68127C07F10801104698470F
:10313000F8600FE03968786800F049FAFB7A0133EB
:10314000FB7207E03968786800F041FAFB7A0133D6
:10315000FB7200BF37E07B681B7C002B09D17B68CA
:10316000D3F8B8325B6B07F1080210469847F86055
:1031700029E03968786800F02AFAFB7A0133FB729B
:1031800021E07B681B7C002B0DD17B68D3F8B83223
:103190001B6B07F1080210469847F860FB68013383
:1031A00007221A700FE03968786800F010FAFB7A8D
:1031B0000133FB7207E03968786800F008FAFB7A9F
:1031C0000133FB7200BFFB7A002B1ED13B68DB880A
:1031D000002B16D03B89002B0ED03B68DA883B8948
:1031E000934228BF13469BB23B813B891A46F9683C
:1031F000786800F05DFA09E03968786800F0E7F96E
:1032000004E0786800F0AEFA00E000BF1037BD4679
:1032100080BD00BF80B584B000AF786039603B6886
:103220009B88002B31D13B68DB88002B2DD13B687C
:103230005B887F2B29D83B685B88DBB203F07F0378
:10324000FB737B6893F89C32DBB2032B04D13968A3
:10325000786800F0BCF91DE07B68FA7B83F89E2259
:10326000FB7B194678680CF04BFE786800F07AFA20
:10327000FB7B002B04D07B68022283F89C2209E0B0
:103280007B68012283F89C2204E03968786800F0AA
:103290009EF900BF00BF1037BD4680BD80B584B029
:1032A00000AF786039600023FB733B685B88DAB25B
:1032B0004E4B1A704D4B1B78012B05D93968786835
:1032C00000F085F903238CE07B6893F89C32DBB235
:1032D000022B02D0032B29D075E0444B1B78002B26
:1032E00020D0424B1B781A467B685A603F4B1B78B4
:1032F00019467868FEF7B7FF0346FB73FB7B002B8C
:1033000008D03968786800F062F97B68022283F897
:103310009C2265E0786800F025FA7B68032283F838
:103320009C225DE0786800F01DFA59E02F4B1B7875
:10333000002B12D17B68022283F89C222B4B1B7836
:103340001A467B685A60294B1B7819467868FEF745
:10335000A6FF786800F006FA42E0244B1B781A4674
:103360007B685B689A422AD07B685B68DBB219464F
:103370007868FEF794FF1D4B1B781A467B685A60ED
:103380001A4B1B7819467868FEF76DFF0346FB73EE
:10339000FB7B002B0FD03968786800F018F97B6848
:1033A0005B68DBB219467868FEF779FF7B6802221A
:1033B00083F89C2214E0786800F0D4F910E0786873
:1033C00000F0D0F90CE03968786800F000F9074B9C
:1033D0001B7819467868FEF762FF0323FB7300BF72
:1033E000FB7B18461037BD4680BD00BFB0030024EC
:1033F00080B582B000AF786039603B68DB88012B14
:1034000004D03968786800F0E2F823E07B6893F82C
:103410009C32DBB2022B02DC002B03DC15E0032B19
:103420000BD012E07B6800229A607B68083301228F
:103430001946786800F03CF90CE07B6804330122FF
:103440001946786800F034F904E03968786800F0CB
:10345000BEF800BF00BF0837BD4680BD80B582B052
:1034600000AF786039607B6893F89C32DBB2013B37
:10347000022B1ED83B68DB88022B04D039687868A1
:1034800000F0A5F81AE07B680122DA607B68D3F8C7
:10349000A432002B05D07B68DB6843F002027B6816
:1034A000DA607B680C3302221946786800F000F974
:1034B00004E03968786800F08AF800BF00BF083778
:1034C000BD4680BD80B582B000AF786039603B6892
:1034D0005B88012B07D17B680122C3F8A42278689E
:1034E00000F040F913E03B685B88022B0BD13B688E
:1034F0009B881B0A9BB2DAB27B6883F8A0227868AB
:1035000000F030F903E03968786800F060F800BF37
:103510000837BD4680BD80B582B000AF78603960A5
:103520007B6893F89C32DBB2013B022B0BD83B68E3
:103530005B88012B0CD17B680022C3F8A422786839
:1035400000F010F904E03968786800F040F800E015
:1035500000BF00BF0837BD4680BD80B584B000AF56
:10356000786039603B68FB60FB681A787B681A708A
:10357000FB680133FB60FB681A787B685A70FB6854
:103580000133FB60F868FFF717FA03461A467B68B9
:103590005A80FB680133FB60FB680133FB60F8680D
:1035A000FFF70AFA03461A467B689A80FB680133E4
:1035B000FB60FB680133FB60F868FFF7FDF9034629
:1035C0001A467B68DA8000BF1037BD4680BD80B5E3
:1035D00082B000AF78603960802178680CF026FCFA
:1035E000002178680CF022FC00BF0837BD4680BD82
:1035F00080B586B000AFF860B9607A600023FB75D3
:10360000FB68002B36D0FB683B61386900F036F868
:10361000034601339BB25B009AB27B681A80FB7D44
:10362000BA6813447A6812781A70FB7D0133FB750F
:10363000FB7DBA68134403221A70FB7D0133FB75CE
:1036400013E0FB7DBA6813443A6912781A703B693B
:1036500001333B61FB7D0133FB75FB7DBA6813448D
:1036600000221A70FB7D0133FB753B691B78002B30
:10367000E7D100E000BF1837BD4680BD80B485B0FB
:1036800000AF78600023FB737B68BB6005E0FB7BC9
:103690000133FB73BB680133BB60BB681B78002B35
:1036A000F5D1FB7B18461437BD465DF8047B7047A7
:1036B00080B584B000AFF860B9607A60FB68022220
:1036C000C3F89422FB687A689A61FB687A68DA61C9
:1036D0007B68BA680021F8680CF031FC00231846BA
:1036E0001037BD4680BD80B584B000AFF860B960CA
:1036F0007A607B68BA680021F8680CF020FC00232F
:1037000018461037BD4680BD80B584B000AFF86064
:10371000B9607A60FB680322C3F89422FB687A6878
:10372000C3F85821FB687A68C3F85C217B68BA68E3
:103730000021F8680CF024FC002318461037BD4621
:1037400080BD80B584B000AFF860B9607A607B68F6
:10375000BA680021F8680CF013FC002318461037F3
:10376000BD4680BD80B582B000AF78607B68042222
:10377000C3F8942200230022002178680CF0DFFBBC
:10378000002318460837BD4680BD80B582B000AF23
:1037900078607B680522C3F8942200230022002170
:1037A00078680CF0EDFB002318460837BD4680BD55
:1037B00080B582B000AF03460A46FB711346BB7169
:1037C000BB79002B05D001224021114803F0EEF90E
:1037D00004E0002240210E4803F0E8F90022022113
:1037E0000C4803F0E3F9F91D4FF47A7301220A48FB
:1037F00008F06EFC01220221064803F0D7F90122ED
:103800004021034803F0D2F900BF0837BD4680BD10
:1038100000200258000402584002002480B582B003
:1038200000AF03460A46FB711346BB71BB79503BA0
:10383000DBB200211846FFF7BBFFFB7902331B11F7
:103840005BB203F00F035BB243F010035BB2DBB279
:1038500000211846FFF7ACFFFB790233DBB203F01F
:103860000F03DBB200211846FFF7A2FF00BF0837A5
:10387000BD4680BD80B582B000AF0023FB711FE064
:10388000FB79503BDBB200211846FFF791FF002186
:103890000220FFF78DFF00211020FFF789FF002392
:1038A000BB7106E001210020FFF782FFBB790133E5
:1038B000BB7197F90630002BF4DAFB790133FB7109
:1038C000FB79072BDCD900BF00BF0837BD4680BDA0
:1038D00080B584B000AF0346FB710B46BB71134645
:1038E0007B710023BB730023FB737B79203BBB738D
:1038F00097F90730002B04DA0023FB71BB79023300
:10390000BB71BA79FB7911461846FFF787FF002390
:10391000FB730CE0BB7B1A01FB7B1344164AD35CA0
:1039200001211846FFF744FFFB7B0133FB73FB7B50
:10393000072BEFD9BB790133DAB2FB791146184670
:10394000FFF76CFF0023FB730DE0BB7B1A01FB7BD1
:1039500013440833084AD35C01211846FFF728FFB7
:10396000FB7B0133FB73FB7B072BEED900BF00BF52
:103970001037BD4680BD00BFC80D010880B584B0BA
:1039800000AF03463A60FB710B46BB710023FB732B
:1039900016E0FB7B3A6813441A78B979FB7918462C
:1039A000FFF796FFFB790833FB71FB79782B04D97D
:1039B0000023FB71BB790233BB71FB7B0133FB73CB
:1039C000FB7B3A6813441B78002BE2D100BF00BF99
:1039D0001037BD4680BD000080B500AF0022202119
:1039E000414803F0E3F8C8200AF08CFA01222021B4
:1039F0003D4803F0DBF80021AE20FFF7D9FE00219F
:103A00000220FFF7D5FE00211020FFF7D1FE002194
:103A10004020FFF7CDFE00218120FFF7C9FE0021E5
:103A2000CF20FFF7C5FE0021A120FFF7C1FE002136
:103A3000C820FFF7BDFE0021A620FFF7B9FE002138
:103A4000A820FFF7B5FE00213F20FFF7B1FE0021BF
:103A5000D320FFF7ADFE00210020FFF7A9FE0021D3
:103A6000D520FFF7A5FE00218020FFF7A1FE002151
:103A7000D920FFF79DFE0021F120FFF799FE0021DC
:103A8000DA20FFF795FE00211220FFF791FE0021BA
:103A9000DB20FFF78DFE00214020FFF789FE00218B
:103AA0002020FFF785FE00210220FFF781FE002184
:103AB0008D20FFF77DFE00211420FFF779FE002105
:103AC000A420FFF775FE0021A620FFF771FE00215C
:103AD000AF20FFF76DFE0021AF20FFF769FEFFF773
:103AE000C9FE00BF80BD00BF0008025880B485B089
:103AF00000AFF860B96087ED010A13467B80FB6870
:103B00004FF000021A60FB684FF000025A60FB6839
:103B10004FF000029A60FB684FF000021A61FB68E8
:103B20004FF000025A61FB684FF00002DA61FB6857
:103B30004FF000021A62FB684FF000025A63D7EDA3
:103B4000017A9FED597A67EE877ABB68C3ED007AF8
:103B50007B8807EE903AB8EEE77AF7EE006AC6EE99
:103B6000877ABB68C3ED017ABB68504A9A60BB682C
:103B70004FF00002DA60BB68D3ED007AB6EE007A4F
:103B800027EE877ABB68D3ED017A67EE277AFB6868
:103B9000C3ED117ABB68D3ED027A37EEA77ABB6822
:103BA000D3ED007A27EE277ABB68D3ED017A67EE72
:103BB000277AFB68C3ED127ABB6893ED007ABB6885
:103BC000D3ED017A27EE277ABB68D3ED007A27EE92
:103BD000277ABB68D3ED017A67EE277AFB68C3EDDD
:103BE000137AFB68D3ED126AFB6893ED127AFB68D7
:103BF000D3ED137A77EE277AB1EE007A37EE877A33
:103C0000C6EE877AFB68C3ED147AFB68D3ED137AAE
:103C100077EEA77AB2EE007A77EE676AFB6893EDEB
:103C2000127AFB68D3ED137A77EE277AB1EE007A39
:103C300037EE877AC6EE877AFB68C3ED157AFB68A4
:103C400093ED127AFB68D3ED137A77EE677AB1EED3
:103C5000007A77EEC76AFB6893ED127AFB68D3EDC2
:103C6000137A77EE277AB1EE007A37EE877AC6EECE
:103C7000877AFB68C3ED167ABB680D4A1A61BB6888
:103C80000C4A5A61BB684FF000029A61FB684FF022
:103C900000021A64FB684FF000029A6300BF1437F9
:103CA000BD465DF8047B7047DB0FC940F4FDB43FAF
:103CB000C3788D42B98F7546F0B52DED028B89B072
:103CC00000AF78603960786800F080F97B68DE6862
:103CD0007B6893ED067ADFED426AC7EE267AB0EE96
:103CE000087A27EE878A7B6803F124057B6803F155
:103CF00028047B68D3ED0D7AB0EE670A0CF0B8F9B2
:103D0000F0EE408A7B68D3ED0D7AB0EE670A0CF0D6
:103D1000F5F9F0EE407AFE6187ED068A7D613C613F
:103D2000C7ED038AC7ED027A97ED077AD7ED027ADD
:103D300027EE277AD7ED066AD7ED037A66EEA77AE3
:103D400077EE277A7B69C3ED007AD7ED077AB1EE7B
:103D5000677AD7ED037A27EE277AD7ED066AD7ED93
:103D6000027A66EEA77A77EE277A3B69C3ED007A8E
:103D700000BF3968786800F0CDF87B6893ED0D7A64
:103D80007B68D3ED0E6A3B68D3ED007A76EEA76AC6
:103D90003B68D3ED017A66EEA77A77EE277A7B68E7
:103DA000C3ED0D7A7B68D3ED0D7AB7EEE77A9FED20
:103DB0000A1BB0EE470B0CF097FEB0EE407BF7EE1F
:103DC000C77B7B68C3ED0D7A00BF2437BD46BDECD1
:103DD000028BF0BDAFF3008000000060FB211940B2
:103DE0000000BF4300000000F0B52DED028B8BB04A
:103DF00000AFF860B9607A60F86800F0E7F8FB6837
:103E0000DE68FB6893ED067ADFED416AC7EE267A3D
:103E1000B0EE087A27EE878AFB6803F12405FB6879
:103E200003F128047B68D3ED0D7AB0EE670A0CF03D
:103E30001FF9F0EE408A7B68D3ED0D7AB0EE670A89
:103E40000CF05CF9F0EE407A7E6287ED088AFD6145
:103E5000BC61C7ED058AC7ED047A97ED097AD7ED05
:103E6000047A27EE277AD7ED086AD7ED057A66EE51
:103E7000A77A77EE277AFB69C3ED007AD7ED097A46
:103E8000B1EE677AD7ED057A27EE277AD7ED086A83
:103E9000D7ED047A66EEA77A77EE277ABB69C3ED91
:103EA000007A00BFB968F86800F034F8FB6893ED59
:103EB0000D7AFB68D3ED0E6ABB68D3ED007A76EE1F
:103EC000A76ABB68D3ED017A66EEA77A77EE277A08
:103ED000FB68C3ED0D7AFB68D3ED0D7AB7EEE77A98
:103EE0009FED091BB0EE470B0CF0FEFDB0EE407BE2
:103EF000F7EEC77BFB68C3ED0D7A00BF2C37BD46DC
:103F0000BDEC028BF0BD00BF00000060FB2119403A
:103F10000000BF4380B483B000AF786039607B6835
:103F200093ED0A7A3B68D3ED037A77EE677A7B6884
:103F3000C3ED0F7A7B6893ED0E7A3B68D3ED046A8C
:103F40007B6893ED0F6A7B68D3ED107A76EE677A23
:103F500066EEA77A37EE277A3B68D3ED056A7B6871
:103F6000D3ED0F7A66EEA77A77EE277A7B68C3EDFA
:103F70000E7A7B68D3ED0E7A9FED107AF4EEC77A55
:103F8000F1EE10FA03DD7B680D4A9A630CE07B6862
:103F9000D3ED0E7A9FED0B7AF4EEC77AF1EE10FABC
:103FA00002D57B68084A9A637B68DA6B7B681A647F
:103FB00000BF0C37BD465DF8047B704763141D439A
:103FC00063141D43D2537BC2D2537BC280B483B0EF
:103FD00000AF78607B6893ED147A7B68D3ED007A4C
:103FE00027EE277A7B68D3ED146A7B68D3ED027ADB
:103FF00066EEA77A37EE677A7B68D3ED156A7B6841
:10400000D3ED047A66EEA77A37EE277A7B68D3ED94
:10401000166A7B68D3ED057A66EEA77A77EE277A83
:104020007B68C3ED037A7B6893ED147A7B68D3EDEC
:10403000007A27EE277A7B68D3ED147A77EEA76AA9
:104040007B68D3ED017A66EEA77A37EE277A7B6834
:10405000D3ED146A7B68D3ED027A66EEA77A37EE69
:10406000277A7B68D3ED156A7B68D3ED077A66EE15
:10407000A77A37EE277A7B68D3ED166A7B68D3ED93
:10408000087A66EEA77A77EE277A7B68C3ED067A20
:104090007B685A687B689A607B681A687B685A609C
:1040A0007B681A697B685A617B68DA687B681A6189
:1040B0007B68DA697B681A627B689A697B68DA6177
:1040C00000BF0C37BD465DF8047B704780B483B0F9
:1040D00000AF78607B689B6803F00103012B01D17E
:1040E000012300E0002318460C37BD465DF8047B31
:1040F0007047000080B485B000AFF860B9607A60A6
:10410000FB689A68094B1340BA6802F480317A68F8
:1041100002F080420A43134343F00042FB689A6076
:1041200000BF1437BD465DF8047B7047C0FFFE3FFB
:1041300080B483B000AF78607B689B6803F0004375
:10414000B3F1004F01D1012300E0002318460C37E2
:10415000BD465DF8047B704780B483B000AF7860E3
:104160007B689B6803F00403042B01D1012300E06A
:10417000002318460C37BD465DF8047B70470000ED
:1041800080B586B000AFF860B9607A6000233B610B
:10419000FB6893F85030012B01D102234CE0FB68FF
:1041A000012283F85020F86801F098F90346FB7566
:1041B000FB7D002B35D1FB685A6D214B134043F03A
:1041C0000202FB685A65FB681B687A68B968184682
:1041D000FFF790FF14E03B6901333B613B69194AEB
:1041E00093420DD3FB685B6D23F0120343F0100282
:1041F000FB685A65FB68002283F8502001231BE00E
:10420000FB681B681846FFF793FF0346002BE2D1BB
:10421000FB685B6D23F0030343F00102FB685A6502
:1042200005E0FB685B6D43F01002FB685A65FB68B4
:10423000002283F85020FB7D18461837BD4680BD0C
:10424000FDEEFFFF00F8C32590B59FB000AF78608A
:104250003960002387F877307B6893F85030012B62
:1042600001D10223BEE07B68012283F850200023A5
:10427000FB6500233B667B681B685C4A934202D166
:104280005B4BBB6001E00023BB60BB68002B0BD124
:104290007B685B6D43F020027B685A657B68002277
:1042A00083F8502001239DE0BB681846FFF754FFB8
:1042B00038677B681B681846FFF74EFF0346002BE4
:1042C0007FD13B6F002B7CD17B681B68474A9342B0
:1042D00004D07B681B68464A934201D1454B00E0FD
:1042E000454BFB663B681B68002B39D0FB6E9B6817
:1042F00023F440423B685B681A43FB6E9A607B681C
:104300001B683A4A934204D07B681B68384A934240
:104310000ED13648FFF7DAFE04463548FFF7D6FEE1
:1043200003462343002B0CBF01230023DBB208E02C
:104330003248FFF7CBFE0346002B0CBF01230023BE
:10434000DBB2002B47D0FB6E9A682D4B13403A68C6
:1043500011683A6892680A431A43FB6E9A603AE021
:10436000FB6E9B6823F44042FB6E9A607B681B687F
:104370001E4A934204D07B681B681D4A93420ED1AB
:104380001A48FFF7A3FE04461948FFF79FFE0346AD
:104390002343002B0CBF01230023DBB208E01748A6
:1043A000FFF794FE0346002B0CBF01230023DBB272
:1043B000002B10D0FB6E9A68114B1340FA6E93607D
:1043C00009E07B685B6D43F020027B685A6501233E
:1043D00087F8773000E000BF7B68002283F8502028
:1043E00097F8773018467C37BD4690BD00200240D4
:1043F000002102400023024000630258006002587E
:10440000E0F0FFFF80B483B000AF786039607B6874
:104410009B6823F47C123B681A437B689A6000BF58
:104420000C37BD465DF8047B704780B483B000AFA5
:10443000786039607B689B6823F0E0723B681A43C0
:104440007B689A6000BF0C37BD465DF8047B7047FF
:1044500080B483B000AF78607B689B6803F0E07342
:1044600018460C37BD465DF8047B704780B487B0B2
:1044700000AFF860B9607A603B60FB6860331A4651
:10448000BB689B0013447B617B691B6803F000429F
:104490007B6803F0F8413B680B431A437B691A6061
:1044A00000BF1C37BD465DF8047B704780B485B003
:1044B00000AFF860B9607A60FB681B6923F4F042D2
:1044C000BB6803F01F03796801FA03F31A43FB6822
:1044D0001A6100BF1437BD465DF8047B704780B495
:1044E00087B000AFF860B9607A60FB6860331A4645
:1044F000BB689B0013447B617B691B6823F000420F
:104500007B681A437B691A6000BF1C37BD465DF8A3
:10451000047B704780B483B000AF78607B68DB6851
:1045200003F44063002B01D1012300E0002318466F
:104530000C37BD465DF8047B704780B487B000AF90
:10454000F860B9607A60FB6830331A46BB681B0AB2
:104550009B0003F00C0313447B617B691A68BB6802
:1045600003F01F031F2101FA03F3DB431A407B68AA
:104570009B0E03F01F01BB6803F01F0301FA03F356
:104580001A437B691A6000BF1C37BD465DF8047B87
:10459000704780B483B000AF786039607B68DB68B7
:1045A00023F003023B681A437B68DA6000BF0C37D4
:1045B000BD465DF8047B704780B487B000AFF860FB
:1045C000B9607A60FB6814331A46BB685B0E9B00C7
:1045D00003F0040313447B617B691A68BB681B0DFD
:1045E00003F01F03072101FA03F3DB431A40BB6802
:1045F0001B0D03F01F03796801FA03F31A437B696B
:104600001A6000BF1C37BD465DF8047B7047000090
:1046100080B485B000AFF860B9607A60FB68D3F809
:10462000C020BB68C3F31303DB431A407B6803F06D
:1046300018030849D940BB680B40C3F313031A435E
:10464000FB68C3F8C02000BF1437BD465DF8047B8B
:10465000704700BFFFFF0F0080B483B000AF7860E9
:104660007B689B6803F01F0318460C37BD465DF856
:10467000047B704780B483B000AF78607B689A6831
:10468000044B13407A68936000BF0C37BD465DF859
:10469000047B7047C0FFFF5F80B483B000AF7860D9
:1046A0007B689B6803F00053B3F1005F01D10123E5
:1046B00000E0002318460C37BD465DF8047B7047C8
:1046C00080B483B000AF78607B689A68054B134074
:1046D00043F080527B689A6000BF0C37BD465DF89E
:1046E000047B7047C0FFFF6F80B483B000AF786079
:1046F0007B689B6803F08053B3F1805F01D1012395
:1047000000E0002318460C37BD465DF8047B704777
:1047100080B483B000AF78607B689A68054B134023
:1047200043F001027B689A6000BF0C37BD465DF81C
:10473000047B7047C0FFFF7F80B483B000AF786018
:104740007B689A68054B134043F002027B689A60CD
:1047500000BF0C37BD465DF8047B7047C0FFFF7F8C
:1047600080B483B000AF78607B689B6803F001037E
:10477000012B01D1012300E0002318460C37BD4670
:104780005DF8047B704780B483B000AF78607B68CD
:104790009B6803F00203022B01D1012300E00023F8
:1047A00018460C37BD465DF8047B704780B483B073
:1047B00000AF78607B689A68054B134043F00402B1
:1047C0007B689A6000BF0C37BD465DF8047B70477C
:1047D000C0FFFF7F80B483B000AF78607B689B68C8
:1047E00003F00403042B01D1012300E00023184649
:1047F0000C37BD465DF8047B704780B483B000AFD2
:1048000078607B689B6803F00803082B01D10123C3
:1048100000E0002318460C37BD465DF8047B704766
:1048200090B589B000AF78600023FB770023BB60B0
:104830007B68002B01D101238FE17B68DB68002BB3
:104840007B685B6D002B09D17868FBF711FE7B68F4
:1048500000229A657B68002283F850207B681B68E1
:104860001846FFF719FF0346002B04D07B681B682E
:104870001846FFF7FFFE7B681B681846FFF734FFFA
:104880000346002B14D17B681B681846FFF718FFFE
:10489000874B1B689B09874AA2FB03239B090133B3
:1048A000BB6002E0BB68013BBB60BB68002BF9D179
:1048B0007B681B681846FFF717FF0346002B0DD1D6
:1048C0007B685B6D43F010027B685A657B689B6D6B
:1048D00043F001027B689A650123FB777B681B68C4
:1048E0001846FFF777FF78617B685B6D03F0100374
:1048F000002B40F029817B69002B40F025817B68EB
:104900005B6D23F4817343F002027B685A657B6818
:104910001B681846FFF724FF0346002B36D17B683F
:104920001B68654A934204D07B681B68634A9342C4
:104930000ED16148FFF714FF04466048FFF710FFEF
:1049400003462343002B0CBF01230023DBB208E006
:104950005B48FFF705FF0346002B0CBF0123002334
:10496000DBB2002B12D07B681B68534A934204D001
:104970007B681B68514A934201D1524A00E0524A77
:104980007B685B6819461046FFF73CFD09F0DEFACC
:10499000034641F20302934214D97B689B68102BB3
:1049A00010D17B685B7D5A037B681B6B1A437B6865
:1049B0009B681A437B681B7F1B04134343F00C0363
:1049C000BB610DE07B685B7D5A037B681B6B1A4300
:1049D0007B689B681A437B681B7F1B041343BB6186
:1049E0007B681B7F012B06D17B681B6A013B5B0444
:1049F000BA691343BB617B685B6A002B09D07B6893
:104A00005B6A03F478727B689B6A1343BA69134349
:104A1000BB617B681B68DA682C4B13407A681268AC
:104A2000B9690B43D3607B681B681846FFF7D2FE59
:104A300038617B681B681846FFF7DFFEF8603B694A
:104A4000002B5FD1FB68002B5CD17B681B7D9A0338
:104A50007B68DB6A1343BB617B681B68DA681C4BAD
:104A600013407A681268B9690B43D3607B6893F886
:104A70003830012B30D17B685B6A002B7B681B6868
:104A80001A69144B13407A68D26B013A11047A68A0
:104A9000126C11437A68526C11437A68926C0A4323
:104AA0001A437B681B6842F001021A611CE000BFD8
:104AB00004000024632D3E05002002400021024036
:104AC00000600258002302400063025803C0F0FF58
:104AD000FCBFFFFF1EF800FC7B681B681A697B683F
:104AE0001B6822F001021A617B681B681B6923F0B6
:104AF00070417B685A6B7B681B680A431A6178684F
:104B000000F0E0FD7B68DB68012B0CD17B681B6843
:104B10001B6B23F00F017B689B695A1E7B681B6827
:104B20000A431A6307E07B681B681A6B7B681B6883
:104B300022F00F021A637B685B6D23F0030343F0DE
:104B400001027B685A6507E07B685B6D43F01002E9
:104B50007B685A650123FB77FB7F18462437BD46E7
:104B600090BD00BF80B586B000AFF860B9607A60D4
:104B7000FB681B68554A934204D0FB681B68544A83
:104B8000934201D1534B00E0534B1846FFF764FDAD
:104B90003861FB681B681846FFF71CFE0346002BB4
:104BA00040F08C80FB6893F85030012B01D1022338
:104BB00087E0FB68012283F850203B69002B05D079
:104BC0003B69052B02D03B69092B70D1F86800F0D6
:104BD000FBFB0346FB75FB7D002B63D1FB685A6D25
:104BE0003E4B134043F48072FB685A65FB681B68B8
:104BF000374A934202D0FB681B6800E0334BFA68E7
:104C00001268934202D03B69002B05D1FB685B6DB3
:104C100023F48012FB685A65FB685B6D03F48053D4
:104C2000002B06D0FB689B6D23F00602FB689A659B
:104C300002E0FB6800229A65FB68DB6C284ADA63B5
:104C4000FB68DB6C274A1A64FB68DB6C264ADA6473
:104C5000FB681B681C221A60FB68002283F8502046
:104C6000FB681B685A68FB681B6842F010025A60B8
:104C7000FB681A68FB68DB6A19461046FFF789FC77
:104C8000FB68D86CFB681B6840331946BA687B68C0
:104C900001F0C6F90346FB75FB681B681846FFF771
:104CA00085FD0DE0FB68002283F8502008E0012319
:104CB000FB75FB68002283F8502001E00223FB759E
:104CC000FB7D18461837BD4680BD00BF002002405E
:104CD000002102400023024000630258FEF0FFFF63
:104CE0009B550008735600088F56000880B483B0A7
:104CF00000AF786000BF0C37BD465DF8047B70479D
:104D000080B483B000AF786000BF0C37BD465DF85B
:104D1000047B704780B483B000AF786000BF0C376D
:104D2000BD465DF8047B704790B5A1B000AF7860D8
:104D30003960002387F87F300023BB603B68DB6865
:104D40009D4A93427B6893F85030012B01D1022396
:104D500021E37B68012283F850207B681B6818469A
:104D6000FFF738FD0346002B40F006833B681B68C5
:104D7000C3F31303002B08D13B681B689B0E03F0A1
:104D80001F03012202FA03F316E03B681B687B66EF
:104D90007B6E93FAA3F33B663B6EBB66BB6E002B48
:104DA00001D1202303E0BB6EB3FA83F3DBB203F03F
:104DB0001F03012202FA03F37A681268D1697A6844
:104DC00012680B43D3617B6818683B6859683B687D
:104DD0001B681A46FFF7B1FB7B681B681846FFF794
:104DE000F9FCB8677B681B681846FFF706FD786713
:104DF000BB6F002B40F0B3807B6F002B40F0AF8087
:104E00007B6818683B6819683B689B681A46FFF71F
:104E1000D3FB6A4B1B6803F07043B3F1805F0BD187
:104E20003B685A697B681B68DB689B0803F00703D3
:104E30005B0002FA03F31DE07B681B68DB6803F08C
:104E40001003002B0BD13B685A697B681B68DB6839
:104E50009B0803F007035B0002FA03F30AE03B68D8
:104E60005A697B681B68DB689B0803F004035B00DE
:104E700002FA03F33B673B681B69042B27D07B686E
:104E800018683B6819693B681A683B6FFFF7EEFAD0
:104E90007B6818683B6819693B685B7E012B02D10F
:104EA0004FF0004300E000231A46FFF718FB7B6831
:104EB00018683B6819693B681B7E012B02D14FF4CF
:104EC000006300E000231A46FFF7F0FA47E07B6832
:104ED0001B681B6E03F0F8423B681B689B069A42F6
:104EE00007D17B681B681A6E7B681B6822F0004242
:104EF0001A667B681B685B6E03F0F8423B681B68B0
:104F00009B069A4207D17B681B685A6E7B681B68B8
:104F100022F000425A667B681B689B6E03F0F842E1
:104F20003B681B689B069A4207D17B681B689A6E98
:104F30007B681B6822F000429A667B681B68DB6E08
:104F400003F0F8423B681B689B069A4207D17B68D6
:104F50001B68DA6E7B681B6822F00042DA667B68A9
:104F60001B681846FFF7FCFB0346002B40F00D8240
:104F70007B6818683B6819683B68DB681A46FFF76E
:104F800047FB3B68DB680C4A934240F033817B6807
:104F900018683B681B68C3F31303002B10D13B68F0
:104FA0001B689B0E013303F01F03092B94BF0123E1
:104FB0000023DBB21EE000BF0000FF470010005CD2
:104FC0003B681B68BB65BB6D93FAA3F37B657B6D88
:104FD000FB65FB6D002B01D1202303E0FB6DB3FAD1
:104FE00083F3DBB2013303F01F03092B94BF0123CA
:104FF0000023DBB2002B79D03B681B68C3F313039B
:10500000002B07D13B681B689B0E01339B0603F006
:10501000F84215E03B681B68FB64FB6C93FAA3F352
:10502000BB64BB6C3B653B6D002B01D1202303E0CF
:105030003B6DB3FA83F3DBB201339B0603F0F84216
:105040003B681B68C3F31303002B09D13B681B6843
:105050009B0E013303F01F03012101FA03F317E054
:105060003B681B683B643B6C93FAA3F3FB63FB6BED
:105070007B647B6C002B01D1202303E07B6CB3FAB3
:1050800083F3DBB2013303F01F03012101FA03F3C1
:1050900042EA03013B681B68C3F31303002B0AD1E8
:1050A0003B681B689B0E013303F01F0213465B0035
:1050B00013441B0518E03B681B687B637B6B93FA0A
:1050C000A3F33B633B6BBB63BB6B002B01D1202382
:1050D00003E0BB6BB3FA83F3DBB2013303F01F02CF
:1050E00013465B0013441B050B437EE03B681B68C3
:1050F000C3F31303002B07D13B681B689B0E0133DE
:105100009B0603F0F84215E03B681B68BB62BB6A74
:1051100093FAA3F37B627B6AFB62FB6A002B01D1EB
:10512000202303E0FB6AB3FA83F3DBB201339B066F
:1051300003F0F8423B681B68C3F31303002B09D14B
:105140003B681B689B0E013303F01F03012101FA2A
:1051500003F317E03B681B68FB61FB6993FAA3F359
:10516000BB61BB693B623B6A002B01D1202303E09A
:105170003B6AB3FA83F3DBB2013303F01F0301216F
:1051800001FA03F342EA03013B681B68C3F313030C
:10519000002B0DD13B681B689B0E013303F01F02EF
:1051A00013465B0013441E3B1B0543F000731BE0DA
:1051B0003B681B683B613B6993FAA3F3FB60FB68A8
:1051C0007B617B69002B01D1202303E07B69B3FA6B
:1051D00083F3DBB2013303F01F0213465B00134479
:1051E0001E3B1B0543F000730B433A689268194657
:1051F000FFF7E2F93B681B68002B80F2C6807B68F2
:105200001B68674A934204D07B681B68654A9342D7
:1052100001D1654B00E0654B1846FFF719F9F866B8
:105220007B681B685E4A934204D07B681B685D4ABA
:1052300093420ED15A48FFF793FA04465948FFF7B4
:105240008FFA03462343002B0CBF01230023DBB25C
:1052500008E05748FFF784FA0346002B0CBF0123F0
:105260000023DBB2002B7DD03B681B68514A934280
:1052700030D1FB6E03F40003002B2BD17B681B683D
:105280004B4A934240F081807B681B68444A9342BA
:1052900004D07B681B68434A934201D1424A00E034
:1052A000424AFB6E43F4000319461046FFF7BDF86F
:1052B000414B1B689B09414AA2FB03239B09013315
:1052C0005B00BB6002E0BB68013BBB60BB68002BBE
:1052D000F9D15AE03B681B68394A93421ED1FB6EF4
:1052E00003F08073002B19D17B681B68304A93420E
:1052F0004BD17B681B682A4A934204D07B681B68A9
:10530000284A934201D1284A00E0284AFB6E43F024
:10531000807319461046FFF788F836E03B681B6833
:10532000284A934231D1FB6E03F48003002B2CD129
:105330007B681B681E4A934227D17B681B68184A0A
:10534000934204D07B681B68164A934201D1164AE7
:1053500000E0164AFB6E43F4800319461046FFF73F
:1053600064F812E07B685B6D43F020027B685A654D
:10537000012387F87F3008E07B685B6D43F02002F3
:105380007B685A65012387F87F307B68002283F8A9
:10539000502097F87F3018468437BD4690BD00BF37
:1053A0000020024000210240002302400063025816
:1053B00000600258000084CB04000024632D3E05E9
:1053C000000052C70000B8CF80B584B000AF78604D
:1053D0007B681B681846FFF7C3F90346002B6ED1A4
:1053E0007B681B689A68384B1340002B0DD07B6894
:1053F0005B6D43F010027B685A657B689B6D43F0E0
:1054000001027B689A6501235AE07B681B68184695
:10541000FFF77EF908F06AFDF8607B681B682B4A8D
:10542000934204D07B681B68294A934201D1294BDF
:1054300000E0294B1846FFF70FF9B8607B681B683E
:10544000234A934202D07B681B6800E01F4B7A68B6
:10545000126893422CD0BB68002B30D128E07B68C7
:105460001B681846FFF77CF90346002B04D17B68C4
:105470001B681846FFF74CF908F038FD0246FB6838
:10548000D31A022B14D97B681B681B6803F0010335
:10549000012B0DD07B685B6D43F010027B685A6571
:1054A0007B689B6D43F001027B689A65012307E0EE
:1054B0007B681B681B6803F00103012BCFD100231D
:1054C00018461037BD4680BD3F00008000200240D6
:1054D00000210240002302400063025880B584B0DE
:1054E00000AF78607B681B681846FFF74CF9F860DE
:1054F0007B681B681846FFF733F90346002B47D03B
:10550000FB68002B44D17B681B689B6803F00D038C
:10551000012B0CD17B681B681846FFF70DF97B68DF
:105520001B6803221A6008F0E1FCB86029E07B6880
:105530005B6D43F010027B685A657B689B6D43F09E
:1055400001027B689A65012323E008F0CFFC024644
:10555000BB68D31A022B14D97B681B689B6803F0C5
:105560000103002B0DD07B685B6D43F010027B685C
:105570005A657B689B6D43F001027B689A65012345
:1055800007E07B681B689B6803F00103002BDCD1FC
:10559000002318461037BD4680BD80B584B000AFEB
:1055A00078607B689B6BFB60FB685B6D03F050036E
:1055B000002B4BD1FB685B6D43F40072FB685A65AE
:1055C000FB681B681B6803F00803002B21D0FB68F5
:1055D0001B681846FEF79EFF0346002B32D0FB687F
:1055E0001B68DB6803F40053002B2BD1FB685B6D59
:1055F00023F48072FB685A65FB685B6D03F480538B
:10560000002B1FD1FB685B6D43F00102FB685A65FC
:1056100018E0FB681B68DB6803F00303002B11D163
:10562000FB685B6D23F48072FB685A65FB685B6DF9
:1056300003F48053002B05D1FB685B6D43F001023E
:10564000FB685A65F868FFF751FB0EE0FB685B6D7D
:1056500003F01003002B03D0F868FFF75BFB04E0B6
:10566000FB68DB6CDB6C7868984700BF1037BD4681
:1056700080BD80B584B000AF78607B689B6BFB60B9
:10568000F868FFF73DFB00BF1037BD4680BD80B511
:1056900084B000AF78607B689B6BFB60FB685B6DE0
:1056A00043F04002FB685A65FB689B6D43F00402BF
:1056B000FB689A65F868FFF72DFB00BF1037BD4601
:1056C00080BD000080B584B000AF78607B681B6847
:1056D0007A4A934204D07B681B68794A934209D185
:1056E000784B9B6803F44033002B14BF0123002345
:1056F000DBB208E0744B9B6803F44033002B14BF0B
:1057000001230023DBB2002B1CD006F035FBF86030
:105710007B685B68B3F5403F10D0B3F5403F73D86A
:10572000B3F5803F02D0B3F5003F6DD17B685B6875
:105730001B0CFA68B2FBF3F3FB6068E0FB689B08A4
:10574000FB6064E04FF400204FF0000104F096F895
:10575000F8607B685B68B3F5301F51D0B3F5301F3C
:1057600054D8B3F5201F47D0B3F5201F4ED8B3F55A
:10577000101F3DD0B3F5101F48D8B3F5001F33D02C
:10578000B3F5001F42D8B3F5E01F29D0B3F5E01FF1
:105790003CD8B3F5C01F1AD0B3F5C01F36D8B3F547
:1057A000A01F14D0B3F5A01F30D8B3F5801F0ED0C2
:1057B000B3F5801F2AD8B3F5402F08D0B3F5402F9A
:1057C00024D8B3F5802F02D0B3F5002F1ED17B680B
:1057D0005B689B0C5B00FA68B2FBF3F3FB6016E0BE
:1057E000FB681B09FB6012E0FB685B09FB600EE0D5
:1057F000FB689B09FB600AE0FB68DB09FB6006E0D5
:10580000FB681B0AFB6002E000BF00E000BF08F07D
:105810009DFB034641F20302934215D8FB682B4AD5
:10582000934208D97B681B689A687B681B6842F4BE
:1058300080729A603EE07B681B689A687B681B6890
:1058400022F480729A6035E0FB685B08FB60FB68BD
:105850001F4A934208D87B681B689A687B681B685C
:1058600022F440729A6025E0FB681A4A93420AD8F3
:105870007B681B689B6823F440727B681B6842F45A
:1058800080729A6016E0FB68134A93420AD87B68DC
:105890001B689B6823F440727B681B6842F40072AB
:1058A0009A6007E07B681B689A687B681B6842F413
:1058B00040729A6000BF1037BD4680BD0020024094
:1058C000002102400023024000630258002D3101F4
:1058D000105E5F0020BCBE0040787D0180B485B0C2
:1058E00000AF78607B6803F00703FB600B4BDB685D
:1058F000BB60BA684FF6FF031340BB60FB681A0237
:10590000BB681A43064B1343BB60044ABB68D360B1
:1059100000BF1437BD465DF8047B704700ED00E022
:105920000000FA0580B400AF044BDB681B0A03F0EB
:1059300007031846BD465DF8047B704700ED00E0A4
:1059400080B483B000AF0346FB80B7F90630002B6C
:105950000BDBFB8803F01F020749B7F906305B0930
:10596000012000FA02F241F8232000BF0C37BD46A7
:105970005DF8047B704700BF00E100E080B483B0B5
:1059800000AF03463960FB80B7F90630002B0ADB15
:105990003B68DAB20C49B7F906301201D2B20B44B7
:1059A00083F800230AE03B68DAB20849FB8803F079
:1059B0000F03043B1201D2B20B441A7600BF0C371E
:1059C000BD465DF8047B704700E100E000ED00E0BB
:1059D00080B489B000AFF860B9607A60FB6803F00A
:1059E0000703FB61FB69C3F10703042B28BF0423F2
:1059F000BB61FB690433062B02D9FB69033B00E062
:105A000000237B614FF0FF32BB6902FA03F3DA43F4
:105A1000BB681A407B699A404FF0FF317B6901FAFD
:105A200003F3D9437B680B40134318462437BD4624
:105A30005DF8047B704780B582B000AF786078680D
:105A4000FFF74CFF00BF0837BD4680BD80B586B06C
:105A500000AF0346B9607A60FB81FFF763FF7861AE
:105A60007A68B9687869FFF7B3FF0246B7F90E3074
:105A700011461846FFF782FF00BF1837BD4680BDAC
:105A800080B582B000AF0346FB80B7F906301846F8
:105A9000FFF756FF00BF0837BD4680BD80B400AF9A
:105AA000BFF35F8F00BF074B5B6A064A23F4803366
:105AB0005362054B00225A6000BFBD465DF8047B6F
:105AC000704700BF00ED00E090ED00E080B483B0CF
:105AD00000AF78600B4A7B6843F0010353600A4BC8
